:100000000C9462000C948A000C948A000C948A0070
:100010000C948A000C948A000C948A000C948A0038
:100020000C948A000C948A000C948A000C948A0028
:100030000C948A000C948A000C948A000C948A0018
:100040000C943E060C948A000C94AE060C94880620
:100050000C948A000C948A000C948A000C948A00F8
:100060000C948A000C948A000000000024002700F1
:100070002A0000000000250028002B0000000008D6
:10008000000201000003040700000000000000005F
:1000900000000000230026002900040404040404D6
:1000A0000404020202020202030303030303010227
:1000B00004081020408001020408102001020408F6
:1000C0001020E00611241FBECFEFD8E0DEBFCDBF69
:1000D00011E0A0E0B1E0ECEDF6E102C005900D9278
:1000E000A434B107D9F722E0A4E4B1E001C01D9225
:1000F000A531B207E1F710E0C2E6D0E004C02197D5
:10010000FE010E94660BC136D107C9F70E944B075A
:100110000C946C0B0C940000CF92DF92EF92FF9244
:10012000CF93DF93B091F101A0E08111AB2F8091CB
:10013000F20190E0880F991FAC0140575F4FC090CB
:10014000F701D090F801E090F901F090FA0130E069
:1001500020E0FA01C591D491E881B90190E080E0F6
:10016000EB23EA130AC02F5F3F4F6C157D058E0508
:100170009F0578F36FEF7FEFCB01DF91CF91FF9079
:10018000EF90DF90CF900895FC01538D448D252F83
:1001900030E0842F90E0821B930B541710F0CF9621
:1001A000089501970895FC01918D828D981761F053
:1001B000A28DAE0FBF2FB11D5D968C91928D9F5F6A
:1001C0009F73928F90E008958FEF9FEF0895FC0149
:1001D000918D828D981731F0828DE80FF11D858DFC
:1001E00090E008958FEF9FEF0895FC01918D228D8F
:1001F000892F90E0805C9F4F821B91098F73992714
:100200000895FC01A48DA80FB92FB11DA35ABF4FAB
:100210002C91848D90E001968F739927848FA68905
:10022000B7892C93A089B1898C91837080648C9359
:10023000938D848D981306C00288F389E02D808108
:100240008F7D80830895EF92FF920F931F93CF933A
:10025000DF93EC0181E0888F9B8D8C8D98131AC001
:10026000E889F989808185FF15C09FB7F894EE89E8
:10027000FF896083E889F989808183708064808345
:100280009FBF81E090E0DF91CF911F910F91FF9090
:10029000EF900895F62E0B8D10E00F5F1F4F0F7338
:1002A0001127E02E8C8D8E110CC00FB607FCFACFF3
:1002B000E889F989808185FFF5CFCE010E9401018F
:1002C000F1CFEB8DEC0FFD2FF11DE35AFF4FF082C4
:1002D0009FB7F8940B8FEA89FB8980818062CFCF2A
:1002E000CF93DF93EC01888D8823B9F0AA89BB896D
:1002F000E889F9898C9185FD03C0808186FD0DC058
:100300000FB607FCF7CF8C9185FFF2CF808185FF78
:10031000EDCFCE010E940101E9CFDF91CF91089589
:100320008DE491E00E94F50021E0892B09F420E0A2
:10033000822F089580E090E0892B29F00E9490019F
:1003400081110C940000089590E0FC01E458FF4FE7
:100350002491FC01E255FF4F3491FC01E656FF4F1A
:10036000E491EE23C9F0222339F0233001F1A8F4FF
:10037000213019F1223029F1F0E0EE0FFF1FEE5885
:10038000FF4FA591B4918FB7F894EC91611126C0FD
:1003900030953E233C938FBF08952730A9F0283035
:1003A000C9F0243049F7809180008F7D03C080918F
:1003B00080008F7780938000DFCF84B58F7784BDF6
:1003C000DBCF84B58F7DFBCF8091B0008F7780939A
:1003D000B000D2CF8091B0008F7DF9CF3E2BDACF25
:1003E000CF93DF9390E0FC01E255FF4F24918656B6
:1003F0009F4FFC0184918823D1F090E0880F991FD2
:10040000FC01E859FF4FA591B491FC01EE58FF4F54
:10041000C591D491623071F49FB7F8943C91822FCA
:10042000809583238C93E8812E2B28839FBFDF91B7
:10043000CF9108958FB7F894EC912E2B2C938FBF0A
:10044000F6CF3FB7F8948091450190914601A09175
:100450004701B091480126B5A89B05C02F3F19F070
:100460000196A11DB11D3FBFBA2FA92F982F882734
:10047000BC01CD01620F711D811D911D42E0660F0F
:10048000771F881F991F4A95D1F708958F929F92E1
:10049000AF92BF92CF92DF92EF92FF924B015C013D
:1004A0000E9421026B017C010E9421026C197D09CE
:1004B0008E099F09683E734081059105A8F321E0EC
:1004C000821A9108A108B10888EEC80E83E0D81EF0
:1004D000E11CF11C81149104A104B10429F7FF90DF
:1004E000EF90DF90CF90BF90AF909F908F90089546
:1004F000CF92DF92EF92FF920F931F93CF93DF93F0
:10050000CDB7DEB7C054D1400FB6F894DEBF0FBEF2
:10051000CDBF2FB7F8948091490190914A01A091E5
:100520004B01B0914C012FBF4091F3015091F40168
:100530006091F5017091F6018C019D01041B150B72
:10054000260B370BB901A801403D574061057105E5
:1005500090F48091FB01C05CDE4F0FB6F894DEBFD3
:100560000FBECDBFDF91CF911F910F91FF90EF9004
:10057000DF90CF9008958093F3019093F401A093BE
:10058000F501B093F6011092EE011092ED01109278
:10059000EC011092EB011092EA0162E08091EF0110
:1005A0000E94F00161E070E080E090E00E9446026D
:1005B00061E08091EF010E94F00160E08091EF0125
:1005C0000E94A4018091F0018551823020F58BE2D8
:1005D00091E10197F1F762E08091EF010E94F00153
:1005E0008091FC0190E08230910538F0880F991FCE
:1005F000880F991F05970197F1F7F89480E00E9402
:100600008C006F3F7F4F8F4F9F4F61F41092FB0123
:10061000789480E0A0CF64E170E080E090E00E94F8
:100620004602D9CF81E00E948C006F3F7F4F8F4FF1
:100630009F4F61F38E010F5F1F4F6E018FEBC81A42
:100640008EEFD80A780180E00E948C00F701608369
:1006500071838283938381E00E948C00F70164831D
:10066000758386839783F8E0EF0EF11CEC14FD048C
:1006700051F7789430E020E0F801C080D180E2802A
:10068000F3804481558166817781FFEFCF16DF06C5
:10069000EF06FF0631F04F3F8FEF580768077807E6
:1006A00019F41092FB01B5CFF90183E0F595E795B8
:1006B0008A95E1F7E651FE4F8081880FC416D50672
:1006C000E606F70610F180832F5F3F4F085F1F4F4C
:1006D0002832310589F64091EE012091EA0180919E
:1006E000EB01280F3327331F8091EC01280F311DB8
:1006F0008091ED01820F932F911D992748171906BC
:1007000081F681E08093FB0126CF8160DCCFAF9240
:10071000BF92CF92DF92EF92FF920F931F93CF93EE
:10072000DF936C017B018B01040F151FEB015E0150
:10073000AE18BF08C017D10759F06991D601ED91E5
:10074000FC910190F081E02DC6010995892B79F784
:10075000C501DF91CF911F910F91FF90EF90DF9036
:10076000CF90BF90AF900895089590E080E00895F5
:10077000FC0101900020E9F73197AF01481B590BAC
:10078000BC018DEF91E00C9487038F929F92AF9202
:10079000BF920F931F93CF93DF93CDB7DEB7A1978F
:1007A0000FB6F894DEBF0FBECDBF19A2423008F4D9
:1007B0004AE08E010F5D1F4F842E912CB12CA12C8D
:1007C000A50194010E94440BE62FB901CA01EA3049
:1007D000F4F4E05DD801EE938D01232B242B252B1F
:1007E00079F790E080E0109719F0CD010E94B803EE
:1007F000A1960FB6F894DEBF0FBECDBFDF91CF91AB
:100800001F910F91BF90AF909F908F900895E95CDA
:10081000E1CFCF93DF93EC0160E08E810E94A401D1
:1008200061E08E810E94A40160E08E810E94A4019B
:100830008BE891E00197F1F7DF91CF910895CF9286
:10084000DF92EF92FF920F931F93CF93DF936C0190
:100850007C0187E0E80EF11CD0E0C0E0062F10E03C
:10086000B8010C2E02C0759567950A94E2F7617085
:10087000F70181917F010E94A4012196C430D10526
:1008800079F7C601DF91CF911F910F91FF90EF9003
:10089000DF90CF900C940904CF92DF92EF92FF92F9
:1008A0000F931F93CF93DF93EC01F62E642F8C816F
:1008B0000E94A4018D818F3F19F060E00E94A40185
:1008C0000F2D10E08F8584FF25C06E0187E0C80ED4
:1008D000D11CF12CE12CB8010E2C02C07595679546
:1008E0000A94E2F76170F60181916F010E94A40100
:1008F000FFEFEF1AFF0A88E0E816F10461F7CE0176
:10090000DF91CF911F910F91FF90EF90DF90CF90EB
:100910000C940904B80184E0759567958A95E1F710
:10092000CE010E941F046F2DCE01DF91CF911F9148
:100930000F91FF90EF90DF90CF900C941F0440E058
:10094000682F8DEF91E00C944C04CF93DF938230AD
:1009500029F490910C02986090930C0280931002FD
:100960001092110280E48093120280E180931302BE
:1009700080E58093140261E0809101020E94F00101
:10098000809102028F3F19F061E00E94F00161E066
:10099000809103020E94F001CDEFD1E09E012D5F16
:1009A000314080910C0284FD0BC084E090E02196E0
:1009B0002817390744F461E08E810E94F001EECFE0
:1009C00088E090E0F4CF8BE39DE00197F1F760E0E1
:1009D000809101020E94A40160E0809103020E94C4
:1009E000A401809102028F3F19F060E00E94A401EF
:1009F00080910C0284FD39C063E08DEF91E00E948C
:100A00001F04CBE4D6E4CE010197F1F763E08DEF4C
:100A100091E00E941F042197F1F763E08DEF91E0D0
:100A20000E941F0483E592E00197F1F762E08DEFE9
:100A300091E00E941F0480910C0280620E949F043A
:100A400084E080930D028CE00E949F0481E00E946C
:100A50009F048BE39FE10197F1F782E080930E0200
:100A600086E0DF91CF910C949F0480620E949F04E6
:100A70008BE496E40197F1F780910C0280620E946A
:100A80009F0483E592E00197F1F780910C02806268
:100A90000E949F04D0CF90911002691710F06FEF61
:100AA000690FE62FF0E0E350FE4F9489890F8068CC
:100AB0000C949F0441E00E944C0481E090E0089572
:100AC0004F925F926F927F928F929F92AF92BF925E
:100AD000CF92DF92EF92FF920F931F93CF936B0110
:100AE0007C01742EAC019B010E943F0B882399F07E
:100AF0008EE191E0CF911F910F91FF90EF90DF90E9
:100B0000CF90BF90AF909F908F907F906F905F90AD
:100B10004F900C94B80346015701E894B7F82FEFB3
:100B20003FEF4FE75FE7C501B4010E943F0B811122
:100B30000DC02FEF3FEF4FE75FE7C501B4010E9403
:100B4000750918161CF482E291E0D4CF2FEF3FEF25
:100B50004FE75FE4C701B6010E94CD0A18161CF4E6
:100B600086E291E0C7CF2FEF3FEF4FE75FECC70181
:100B7000B6010E94750987FDF3CF20E030E0A9019E
:100B8000C701B6010E94750910E000E087FF0CC0A4
:100B900041E06DE28DEF91E00E944C04F7FAF09491
:100BA000F7F8F09401E010E0C0E060E070E080E071
:100BB0009FE37C1641F020E030E040E251E40E94E7
:100BC0007A09CF5FF6CFA70196010E9409094B0170
:100BD0005C010E94EC092B013C014AE00E94C50324
:100BE000080F191FCC23C9F1C301B2010E941B0ACF
:100BF0009B01AC01C501B4010E9408094B015C01D5
:100C000041E06EE28DEF91E00E944C040F5F1F4FB8
:100C1000C15018F120E030E040E251E4C501B401D8
:100C20000E94D20A2B013C010E94EC094B01B12C1D
:100C3000A12C4AE0C501B4010E94C503080F191F89
:100C4000C501B4010E941B0A9B01AC01C301B201A2
:100C50000E9408094B015C01DBCFC801CF911F91B5
:100C60000F91FF90EF90DF90CF90BF90AF909F904B
:100C70008F907F906F905F904F9008951F920F928A
:100C80000FB60F9211242F933F938F939F93AF939F
:100C9000BF938091490190914A01A0914B01B0917D
:100CA0004C013091440123E0230F2D3758F5019674
:100CB000A11DB11D209344018093490190934A01E5
:100CC000A0934B01B0934C01809145019091460156
:100CD000A0914701B09148010196A11DB11D8093DB
:100CE000450190934601A0934701B0934801BF91FD
:100CF000AF919F918F913F912F910F900FBE0F90C9
:100D00001F90189526E8230F0296A11DB11DD2CF82
:100D10001F920F920FB60F9211242F933F934F9370
:100D20005F936F937F938F939F93AF93BF93EF9353
:100D3000FF938DE491E00E940101FF91EF91BF913B
:100D4000AF919F918F917F916F915F914F913F9163
:100D50002F910F900FBE0F901F9018951F920F921A
:100D60000FB60F9211242F938F939F93EF93FF93BE
:100D7000E0915D01F0915E018081E0916301F0916D
:100D8000640182FD1BC09081809166018F5F8F732B
:100D900020916701821741F0E0916601F0E0E35B8A
:100DA000FE4F958F80936601FF91EF919F918F91F8
:100DB0002F910F900FBE0F901F9018958081F4CF48
:100DC000EDE4F1E01382128288EE93E0A0E0B0E05F
:100DD00084839583A683B78384E091E091838083A5
:100DE00085EC90E09587848784EC90E097878687F0
:100DF00080EC90E0918B808B81EC90E0938B828BE8
:100E000082EC90E0958B848B86EC90E0978B868BC0
:100E1000118E128E138E148EEDEFF1E0138212827A
:100E200086E191E0918380838AE0848389E08583F1
:100E300088E0868385E0878384E0808783E08187FC
:100E400082E082871386148615861686178681E0CF
:100E50000E94A504AAEEB1E08DE015968C9315973B
:100E60008BE016968C931697EBEBF0E0E4911796D7
:100E7000EC931797E7EAF0E0E4911896EC93189753
:100E800040E85EE360E070E01D964D935D936D93E6
:100E90007C9350970895789484B5826084BD84B51E
:100EA000816084BD85B5826085BD85B5816085BD65
:100EB00080916E00816080936E001092810080911D
:100EC00081008260809381008091810081608093A5
:100ED0008100809180008160809380008091B100CA
:100EE00084608093B1008091B00081608093B000F5
:100EF00080917A00846080937A0080917A00826089
:100F000080937A0080917A00816080937A0080914A
:100F10007A00806880937A001092C10082E00E947B
:100F2000A50461E086E00E94F00161E087E00E9494
:100F3000F00161E08BE00E94F00161E08CE00E9432
:100F4000F00160E086E00E94A40160E087E00E947A
:100F5000A40160E08BE00E94A40160E08CE00E94AC
:100F6000A40162E08091EF010E94F0012FB7F89494
:100F70008091490190914A01A0914B01B0914C019F
:100F80002FBF805D9740A109B1098093F301909331
:100F9000F401A093F501B093F60187E38093FC017F
:100FA00060E080E00E944B058AE291E00E94B80375
:100FB00061E080E00E944B0581E391E00E94B8036C
:100FC00060E08EE00E944B056FED8DEF91E00E9496
:100FD0005A058FE391E00E94B80361E08EE00E9421
:100FE0004B0581E491E00E94B803C0E0D0E00E948C
:100FF0007802882341F08091F0018C3009F462C0BE
:1010000048F48B3001F1C12CD12C90ECE92E9FE7F4
:10101000F92E43C085518230B0F71091EC01612F59
:1010200070E0762F662766277F778091ED01682B29
:1010300090E080E00E941B0A2DEC3CEC4CEC5DE360
:101040000E94D20A5BC06091EC0170E090E080E009
:101050000E941B0A6B017C011091ED0117FF0AC071
:10106000AC019B0160E070E080E89FEB0E94080902
:101070006B017C011F70612F70E090E080E00E94A6
:101080001D0A2DEC3CEC4CEC5DE30E94D20AA7015A
:1010900096010E9409096B017C010E947802882355
:1010A00051F08091F0018B3030F08D3080F185511E
:1010B000823008F491C0812C912C80ECA82E8FE70F
:1010C000B82E43C01091EC01612F70E090E080E0F9
:1010D0000E941B0A6B017C016091ED016F7070E052
:1010E00090E080E00E941D0A2DEC3CEC4CEC5DE3AE
:1010F0000E94D20AA70196010E9409096B017C0196
:1011000017FFCBCFF7FAF094F7F8F094C6CF6091C1
:10111000EB0170E090E080E00E941D0A2DEC3CECB9
:101120004CEC5DE30E94D20A4B015C016091EA0144
:1011300070E090E080E00E941D0A9B01AC01C501B7
:10114000B4010E9409094B015C0160E089E00E9442
:101150004B0541E0C701B6010E94600561E089E0EE
:101160000E944B0541E0C501B4010E94600520E0EA
:1011700030E048EC51E4C701B6010E94CD0A61E0BD
:1011800087FD60E086E00E94A40120E030E040E2BC
:1011900052E4C501B4010E94750918167CF161E0A2
:1011A00087E00E94A40161E08BE00E94A40160E05E
:1011B0008CE00E94A40168EE73E080E090E00E9461
:1011C0004602209709F413CF0E949001882309F466
:1011D0000ECF0E9400000BCF6091EA017091EB01ED
:1011E00076276727762790E080E00E941B0A2DEC87
:1011F0003CEC4CEC5DE30E94D20AA5CF60E087E0B6
:101200000E94A40160E08BE00E94A40161E0D0CFC5
:101210005058BB27AA270E9420090C94930A0E94C9
:10122000850A38F00E948C0A20F039F49F3F19F4A7
:1012300026F40C94820A0EF4E095E7FB0C947C0AE9
:10124000E92F0E94A40A58F3BA17620773078407AC
:10125000950720F079F4A6F50C94C60A0EF4E095F3
:101260000B2EBA2FA02D0B01B90190010C01CA0160
:10127000A0011124FF27591B99F0593F50F4503E0B
:1012800068F11A16F040A22F232F342F4427585FFD
:10129000F3CF469537952795A795F0405395C9F715
:1012A0007EF41F16BA0B620B730B840BBAF09150CD
:1012B000A1F0FF0FBB1F661F771F881FC2F70EC06C
:1012C000BA0F621F731F841F48F48795779567953F
:1012D000B795F7959E3F08F0B0CF9395880F08F02B
:1012E0009927EE0F9795879508950E94580A08F45C
:1012F00081E008950E948E090C94930A0E948C0A42
:1013000058F00E94850A40F029F45F3F29F00C94C0
:101310007C0A51110C94C70A0C94820A0E94A40AF8
:1013200068F39923B1F3552391F3951B550BBB2714
:10133000AA2762177307840738F09F5F5F4F220F59
:10134000331F441FAA1FA9F335D00E2E3AF0E0E850
:1013500032D091505040E695001CCAF72BD0FE2F9A
:1013600029D0660F771F881FBB1F2617370748072E
:10137000AB07B0E809F0BB0B802DBF01FF279358E6
:101380005F4F3AF09E3F510578F00C947C0A0C9424
:10139000C70A5F3FE4F3983ED4F386957795679547
:1013A000B795F7959F5FC9F7880F911D969587951B
:1013B00097F90895E1E0660F771F881FBB1F62173A
:1013C00073078407BA0720F0621B730B840BBA0BF8
:1013D000EE1F88F7E09508950E94AC0A88F09F57A9
:1013E00098F0B92F9927B751B0F0E1F0660F771F49
:1013F000881F991F1AF0BA95C9F714C0B13091F03F
:101400000E94C60AB1E008950C94C60A672F782F8F
:101410008827B85F39F0B93FCCF386957795679503
:10142000B395D9F73EF490958095709561957F4F6F
:101430008F4F9F4F0895E89409C097FB3EF4909515
:101440008095709561957F4F8F4F9F4F9923A9F09D
:10145000F92F96E9BB279395F6958795779567952C
:10146000B795F111F8CFFAF4BB0F11F460FF1BC070
:101470006F5F7F4F8F4F9F4F16C0882311F096E903
:1014800011C0772321F09EE8872F762F05C06623B1
:1014900071F096E8862F70E060E02AF09A95660F6A
:1014A000771F881FDAF7880F9695879597F9089523
:1014B000990F0008550FAA0BE0E8FEEF1616170665
:1014C000E807F907C0F012161306E407F50798F0CD
:1014D000621B730B840B950B39F40A2661F0232BE6
:1014E000242B252B21F408950A2609F4A140A69562
:1014F0008FEF811D811D089597F99F6780E870E047
:1015000060E008959FEF80EC089500240A94161679
:10151000170618060906089500240A9412161306E1
:10152000140605060895092E0394000C11F488236F
:1015300052F0BB0F40F4BF2B11F460FF04C06F5F8B
:101540007F4F8F4F9F4F089557FD9058440F551F61
:1015500059F05F3F71F04795880F97FB991F61F035
:101560009F3F79F087950895121613061406551FAC
:10157000F2CF4695F1DF08C0161617061806991F18
:10158000F1CF86957105610508940895E894BB270D
:1015900066277727CB0197F908950E94580A08F427
:1015A0008FEF08950E94E50A0C94930A0E94850A21
:1015B00038F00E948C0A20F0952311F00C947C0ADC
:1015C0000C94820A11240C94C70A0E94A40A70F396
:1015D000959FC1F3950F50E0551F629FF001729FD8
:1015E000BB27F00DB11D639FAA27F00DB11DAA1FE7
:1015F000649F6627B00DA11D661F829F2227B00D34
:10160000A11D621F739FB00DA11D621F839FA00DBE
:10161000611D221F749F3327A00D611D231F849F0E
:10162000600D211D822F762F6A2F11249F57504065
:101630009AF0F1F088234AF0EE0FFF1FBB1F661FE0
:10164000771F881F91505040A9F79E3F510580F0A9
:101650000C947C0A0C94C70A5F3FE4F3983ED4F3E1
:10166000869577956795B795F795E7959F5FC1F74D
:10167000FE2B880F911D9695879597F908950E94E6
:10168000580A880B990B0895A1E21A2EAA1BBB1BBE
:10169000FD010DC0AA1FBB1FEE1FFF1FA217B3073E
:1016A000E407F50720F0A21BB30BE40BF50B661F54
:1016B000771F881F991F1A9469F760957095809518
:1016C00090959B01AC01BD01CF010895EE0FFF1F66
:0C16D0000590F491E02D0994F894FFCFF0
:1016DC000000000023018703C4007001F500D30053
:1016EC00E700000000005A058703B503B4036E61E0
:1016FC006E00696E66006F76660054656D703A20F8
:10170C000048756D656461643A20202020200043F8
:04171C0000250000A4
:00000001FF
